{
  "_format": "hh-sol-artifact-1",
  "contractName": "Token",
  "sourceName": "contracts/token.sol",
  "abi": [
    {
      "inputs": [
        {
          "internalType": "string",
          "name": "name",
          "type": "string"
        },
        {
          "internalType": "string",
          "name": "symbol",
          "type": "string"
        },
        {
          "internalType": "uint256",
          "name": "totalSupply",
          "type": "uint256"
        },
        {
          "internalType": "address",
          "name": "beneficiary",
          "type": "address"
        }
      ],
      "stateMutability": "nonpayable",
      "type": "constructor"
    },
    {
      "anonymous": false,
      "inputs": [
        {
          "indexed": true,
          "internalType": "address",
          "name": "owner",
          "type": "address"
        },
        {
          "indexed": true,
          "internalType": "address",
          "name": "spender",
          "type": "address"
        },
        {
          "indexed": false,
          "internalType": "uint256",
          "name": "value",
          "type": "uint256"
        }
      ],
      "name": "Approval",
      "type": "event"
    },
    {
      "anonymous": false,
      "inputs": [
        {
          "indexed": true,
          "internalType": "bytes32",
          "name": "role",
          "type": "bytes32"
        },
        {
          "indexed": true,
          "internalType": "bytes32",
          "name": "previousAdminRole",
          "type": "bytes32"
        },
        {
          "indexed": true,
          "internalType": "bytes32",
          "name": "newAdminRole",
          "type": "bytes32"
        }
      ],
      "name": "RoleAdminChanged",
      "type": "event"
    },
    {
      "anonymous": false,
      "inputs": [
        {
          "indexed": true,
          "internalType": "bytes32",
          "name": "role",
          "type": "bytes32"
        },
        {
          "indexed": true,
          "internalType": "address",
          "name": "account",
          "type": "address"
        },
        {
          "indexed": true,
          "internalType": "address",
          "name": "sender",
          "type": "address"
        }
      ],
      "name": "RoleGranted",
      "type": "event"
    },
    {
      "anonymous": false,
      "inputs": [
        {
          "indexed": true,
          "internalType": "bytes32",
          "name": "role",
          "type": "bytes32"
        },
        {
          "indexed": true,
          "internalType": "address",
          "name": "account",
          "type": "address"
        },
        {
          "indexed": true,
          "internalType": "address",
          "name": "sender",
          "type": "address"
        }
      ],
      "name": "RoleRevoked",
      "type": "event"
    },
    {
      "anonymous": false,
      "inputs": [
        {
          "indexed": true,
          "internalType": "address",
          "name": "from",
          "type": "address"
        },
        {
          "indexed": true,
          "internalType": "address",
          "name": "to",
          "type": "address"
        },
        {
          "indexed": false,
          "internalType": "uint256",
          "name": "value",
          "type": "uint256"
        }
      ],
      "name": "Transfer",
      "type": "event"
    },
    {
      "anonymous": false,
      "inputs": [
        {
          "indexed": false,
          "internalType": "bool",
          "name": "transfersAllowed",
          "type": "bool"
        }
      ],
      "name": "TransfersAllowed",
      "type": "event"
    },
    {
      "inputs": [],
      "name": "ADMIN_ROLE",
      "outputs": [
        {
          "internalType": "bytes32",
          "name": "",
          "type": "bytes32"
        }
      ],
      "stateMutability": "view",
      "type": "function"
    },
    {
      "inputs": [],
      "name": "DEFAULT_ADMIN_ROLE",
      "outputs": [
        {
          "internalType": "bytes32",
          "name": "",
          "type": "bytes32"
        }
      ],
      "stateMutability": "view",
      "type": "function"
    },
    {
      "inputs": [],
      "name": "MINTER_ROLE",
      "outputs": [
        {
          "internalType": "bytes32",
          "name": "",
          "type": "bytes32"
        }
      ],
      "stateMutability": "view",
      "type": "function"
    },
    {
      "inputs": [],
      "name": "TRANSFER_ROLE",
      "outputs": [
        {
          "internalType": "bytes32",
          "name": "",
          "type": "bytes32"
        }
      ],
      "stateMutability": "view",
      "type": "function"
    },
    {
      "inputs": [
        {
          "internalType": "address",
          "name": "owner",
          "type": "address"
        },
        {
          "internalType": "address",
          "name": "spender",
          "type": "address"
        }
      ],
      "name": "allowance",
      "outputs": [
        {
          "internalType": "uint256",
          "name": "",
          "type": "uint256"
        }
      ],
      "stateMutability": "view",
      "type": "function"
    },
    {
      "inputs": [
        {
          "internalType": "address",
          "name": "spender",
          "type": "address"
        },
        {
          "internalType": "uint256",
          "name": "amount",
          "type": "uint256"
        }
      ],
      "name": "approve",
      "outputs": [
        {
          "internalType": "bool",
          "name": "",
          "type": "bool"
        }
      ],
      "stateMutability": "nonpayable",
      "type": "function"
    },
    {
      "inputs": [
        {
          "internalType": "address",
          "name": "account",
          "type": "address"
        }
      ],
      "name": "balanceOf",
      "outputs": [
        {
          "internalType": "uint256",
          "name": "",
          "type": "uint256"
        }
      ],
      "stateMutability": "view",
      "type": "function"
    },
    {
      "inputs": [],
      "name": "decimals",
      "outputs": [
        {
          "internalType": "uint8",
          "name": "",
          "type": "uint8"
        }
      ],
      "stateMutability": "view",
      "type": "function"
    },
    {
      "inputs": [
        {
          "internalType": "address",
          "name": "spender",
          "type": "address"
        },
        {
          "internalType": "uint256",
          "name": "subtractedValue",
          "type": "uint256"
        }
      ],
      "name": "decreaseAllowance",
      "outputs": [
        {
          "internalType": "bool",
          "name": "",
          "type": "bool"
        }
      ],
      "stateMutability": "nonpayable",
      "type": "function"
    },
    {
      "inputs": [
        {
          "internalType": "bytes32",
          "name": "role",
          "type": "bytes32"
        }
      ],
      "name": "getRoleAdmin",
      "outputs": [
        {
          "internalType": "bytes32",
          "name": "",
          "type": "bytes32"
        }
      ],
      "stateMutability": "view",
      "type": "function"
    },
    {
      "inputs": [
        {
          "internalType": "bytes32",
          "name": "role",
          "type": "bytes32"
        },
        {
          "internalType": "address",
          "name": "account",
          "type": "address"
        }
      ],
      "name": "grantRole",
      "outputs": [],
      "stateMutability": "nonpayable",
      "type": "function"
    },
    {
      "inputs": [
        {
          "internalType": "bytes32",
          "name": "role",
          "type": "bytes32"
        },
        {
          "internalType": "address",
          "name": "account",
          "type": "address"
        }
      ],
      "name": "hasRole",
      "outputs": [
        {
          "internalType": "bool",
          "name": "",
          "type": "bool"
        }
      ],
      "stateMutability": "view",
      "type": "function"
    },
    {
      "inputs": [
        {
          "internalType": "address",
          "name": "spender",
          "type": "address"
        },
        {
          "internalType": "uint256",
          "name": "addedValue",
          "type": "uint256"
        }
      ],
      "name": "increaseAllowance",
      "outputs": [
        {
          "internalType": "bool",
          "name": "",
          "type": "bool"
        }
      ],
      "stateMutability": "nonpayable",
      "type": "function"
    },
    {
      "inputs": [
        {
          "internalType": "address",
          "name": "_recipient",
          "type": "address"
        },
        {
          "internalType": "uint256",
          "name": "_amount",
          "type": "uint256"
        }
      ],
      "name": "mint",
      "outputs": [],
      "stateMutability": "nonpayable",
      "type": "function"
    },
    {
      "inputs": [],
      "name": "name",
      "outputs": [
        {
          "internalType": "string",
          "name": "",
          "type": "string"
        }
      ],
      "stateMutability": "view",
      "type": "function"
    },
    {
      "inputs": [
        {
          "internalType": "bytes32",
          "name": "role",
          "type": "bytes32"
        },
        {
          "internalType": "address",
          "name": "account",
          "type": "address"
        }
      ],
      "name": "renounceRole",
      "outputs": [],
      "stateMutability": "nonpayable",
      "type": "function"
    },
    {
      "inputs": [
        {
          "internalType": "bytes32",
          "name": "role",
          "type": "bytes32"
        },
        {
          "internalType": "address",
          "name": "account",
          "type": "address"
        }
      ],
      "name": "revokeRole",
      "outputs": [],
      "stateMutability": "nonpayable",
      "type": "function"
    },
    {
      "inputs": [
        {
          "internalType": "bool",
          "name": "_transfersAllowed",
          "type": "bool"
        }
      ],
      "name": "setTransfersAllowed",
      "outputs": [],
      "stateMutability": "nonpayable",
      "type": "function"
    },
    {
      "inputs": [
        {
          "internalType": "bytes4",
          "name": "interfaceId",
          "type": "bytes4"
        }
      ],
      "name": "supportsInterface",
      "outputs": [
        {
          "internalType": "bool",
          "name": "",
          "type": "bool"
        }
      ],
      "stateMutability": "view",
      "type": "function"
    },
    {
      "inputs": [],
      "name": "symbol",
      "outputs": [
        {
          "internalType": "string",
          "name": "",
          "type": "string"
        }
      ],
      "stateMutability": "view",
      "type": "function"
    },
    {
      "inputs": [],
      "name": "totalSupply",
      "outputs": [
        {
          "internalType": "uint256",
          "name": "",
          "type": "uint256"
        }
      ],
      "stateMutability": "view",
      "type": "function"
    },
    {
      "inputs": [
        {
          "internalType": "address",
          "name": "recipient",
          "type": "address"
        },
        {
          "internalType": "uint256",
          "name": "amount",
          "type": "uint256"
        }
      ],
      "name": "transfer",
      "outputs": [
        {
          "internalType": "bool",
          "name": "",
          "type": "bool"
        }
      ],
      "stateMutability": "nonpayable",
      "type": "function"
    },
    {
      "inputs": [
        {
          "internalType": "address",
          "name": "sender",
          "type": "address"
        },
        {
          "internalType": "address",
          "name": "recipient",
          "type": "address"
        },
        {
          "internalType": "uint256",
          "name": "amount",
          "type": "uint256"
        }
      ],
      "name": "transferFrom",
      "outputs": [
        {
          "internalType": "bool",
          "name": "",
          "type": "bool"
        }
      ],
      "stateMutability": "nonpayable",
      "type": "function"
    },
    {
      "inputs": [],
      "name": "transfersAllowed",
      "outputs": [
        {
          "internalType": "bool",
          "name": "",
          "type": "bool"
        }
      ],
      "stateMutability": "view",
      "type": "function"
    }
  ],
  "bytecode": "0x60806040526000600660006101000a81548160ff0219169083151502179055503480156200002c57600080fd5b50604051620031ef380380620031ef833981810160405281019062000052919062000721565b838381600490805190602001906200006c929190620005d1565b50806005908051906020019062000085929190620005d1565b5050506200009a81836200018c60201b60201c565b620000cc7ff0887ba65ee2024ea881d91b74c2450ef19e1557f03bed3ea9f16b037cbe2dc9826200030660201b60201c565b620000fe7f9143236d81225394f3bd65b44e6e29fdf4d7ba0773d9bb3f5cc15eb80ba37777826200030660201b60201c565b620001307fdf8b4c520ffe197c5343c6f5aec59570151ef9a492f2c624fd45ddde6135ec42826200030660201b60201c565b620001827f9143236d81225394f3bd65b44e6e29fdf4d7ba0773d9bb3f5cc15eb80ba377777fdf8b4c520ffe197c5343c6f5aec59570151ef9a492f2c624fd45ddde6135ec426200031c60201b60201c565b5050505062000b1b565b600073ffffffffffffffffffffffffffffffffffffffff168273ffffffffffffffffffffffffffffffffffffffff161415620001ff576040517f08c379a0000000000000000000000000000000000000000000000000000000008152600401620001f6906200089c565b60405180910390fd5b62000213600083836200037f60201b60201c565b806003600082825462000227919062000953565b9250508190555080600160008473ffffffffffffffffffffffffffffffffffffffff1673ffffffffffffffffffffffffffffffffffffffff16815260200190815260200160002060008282546200027f919062000953565b925050819055508173ffffffffffffffffffffffffffffffffffffffff16600073ffffffffffffffffffffffffffffffffffffffff167fddf252ad1be2c89b69c2b068fc378daa952ba7f163c4a11628f55a4df523b3ef83604051620002e69190620008be565b60405180910390a362000302600083836200044a60201b60201c565b5050565b6200031882826200044f60201b60201c565b5050565b60006200032f836200054060201b60201c565b905081600080858152602001908152602001600020600101819055508181847fbd79b86ffe0ab8e8776151514217cd7cacd52c909f66475c3af44e129f0b00ff60405160405180910390a4505050565b82600660009054906101000a900460ff1680620003c85750600073ffffffffffffffffffffffffffffffffffffffff168173ffffffffffffffffffffffffffffffffffffffff16145b80620004025750620004017f9143236d81225394f3bd65b44e6e29fdf4d7ba0773d9bb3f5cc15eb80ba37777336200055f60201b60201c565b5b62000444576040517f08c379a00000000000000000000000000000000000000000000000000000000081526004016200043b906200087a565b60405180910390fd5b50505050565b505050565b6200046182826200055f60201b60201c565b6200053c57600160008084815260200190815260200160002060000160008373ffffffffffffffffffffffffffffffffffffffff1673ffffffffffffffffffffffffffffffffffffffff16815260200190815260200160002060006101000a81548160ff021916908315150217905550620004e1620005c960201b60201c565b73ffffffffffffffffffffffffffffffffffffffff168173ffffffffffffffffffffffffffffffffffffffff16837f2f8788117e7eff1d82e926ec794901d17c78024a50270940304540a733656f0d60405160405180910390a45b5050565b6000806000838152602001908152602001600020600101549050919050565b600080600084815260200190815260200160002060000160008373ffffffffffffffffffffffffffffffffffffffff1673ffffffffffffffffffffffffffffffffffffffff16815260200190815260200160002060009054906101000a900460ff16905092915050565b600033905090565b828054620005df9062000a24565b90600052602060002090601f0160209004810192826200060357600085556200064f565b82601f106200061e57805160ff19168380011785556200064f565b828001600101855582156200064f579182015b828111156200064e57825182559160200191906001019062000631565b5b5090506200065e919062000662565b5090565b5b808211156200067d57600081600090555060010162000663565b5090565b60006200069862000692846200090f565b620008db565b905082815260208101848484011115620006b157600080fd5b620006be848285620009ee565b509392505050565b600081519050620006d78162000ae7565b92915050565b600082601f830112620006ef57600080fd5b81516200070184826020860162000681565b91505092915050565b6000815190506200071b8162000b01565b92915050565b600080600080608085870312156200073857600080fd5b600085015167ffffffffffffffff8111156200075357600080fd5b6200076187828801620006dd565b945050602085015167ffffffffffffffff8111156200077f57600080fd5b6200078d87828801620006dd565b9350506040620007a0878288016200070a565b9250506060620007b387828801620006c6565b91505092959194509250565b6000620007ce60238362000942565b91507f526962626f6e546f6b656e3a206e6f207472616e736665722070726976696c6560008301527f67657300000000000000000000000000000000000000000000000000000000006020830152604082019050919050565b600062000836601f8362000942565b91507f45524332303a206d696e7420746f20746865207a65726f2061646472657373006000830152602082019050919050565b6200087481620009e4565b82525050565b600060208201905081810360008301526200089581620007bf565b9050919050565b60006020820190508181036000830152620008b78162000827565b9050919050565b6000602082019050620008d5600083018462000869565b92915050565b6000604051905081810181811067ffffffffffffffff8211171562000905576200090462000ab8565b5b8060405250919050565b600067ffffffffffffffff8211156200092d576200092c62000ab8565b5b601f19601f8301169050602081019050919050565b600082825260208201905092915050565b60006200096082620009e4565b91506200096d83620009e4565b9250827fffffffffffffffffffffffffffffffffffffffffffffffffffffffffffffffff03821115620009a557620009a462000a5a565b5b828201905092915050565b6000620009bd82620009c4565b9050919050565b600073ffffffffffffffffffffffffffffffffffffffff82169050919050565b6000819050919050565b60005b8381101562000a0e578082015181840152602081019050620009f1565b8381111562000a1e576000848401525b50505050565b6000600282049050600182168062000a3d57607f821691505b6020821081141562000a545762000a5362000a89565b5b50919050565b7f4e487b7100000000000000000000000000000000000000000000000000000000600052601160045260246000fd5b7f4e487b7100000000000000000000000000000000000000000000000000000000600052602260045260246000fd5b7f4e487b7100000000000000000000000000000000000000000000000000000000600052604160045260246000fd5b62000af281620009b0565b811462000afe57600080fd5b50565b62000b0c81620009e4565b811462000b1857600080fd5b50565b6126c48062000b2b6000396000f3fe608060405234801561001057600080fd5b50600436106101585760003560e01c806370a08231116100c3578063a9059cbb1161007c578063a9059cbb14610403578063b0660c3d14610433578063d539139314610451578063d547741f1461046f578063dd62ed3e1461048b578063f3cd1c28146104bb57610158565b806370a082311461031957806375b238fc1461034957806391d148541461036757806395d89b4114610397578063a217fddf146103b5578063a457c2d7146103d357610158565b8063248a9ca311610115578063248a9ca3146102475780632f2ff15d14610277578063313ce5671461029357806336568abe146102b157806339509351146102cd57806340c10f19146102fd57610158565b806301ffc9a71461015d57806306fdde031461018d578063095ea7b3146101ab57806318160ddd146101db578063206b60f9146101f957806323b872dd14610217575b600080fd5b61017760048036038101906101729190611b6e565b6104d7565b604051610184919061218d565b60405180910390f35b610195610551565b6040516101a291906121c3565b60405180910390f35b6101c560048036038101906101c09190611aa4565b6105e3565b6040516101d2919061218d565b60405180910390f35b6101e3610601565b6040516101f09190612385565b60405180910390f35b61020161060b565b60405161020e91906121a8565b60405180910390f35b610231600480360381019061022c9190611a55565b61062f565b60405161023e919061218d565b60405180910390f35b610261600480360381019061025c9190611b09565b610727565b60405161026e91906121a8565b60405180910390f35b610291600480360381019061028c9190611b32565b610746565b005b61029b61076f565b6040516102a891906123a0565b60405180910390f35b6102cb60048036038101906102c69190611b32565b610778565b005b6102e760048036038101906102e29190611aa4565b6107fb565b6040516102f4919061218d565b60405180910390f35b61031760048036038101906103129190611aa4565b6108a7565b005b610333600480360381019061032e91906119f0565b61091e565b6040516103409190612385565b60405180910390f35b610351610967565b60405161035e91906121a8565b60405180910390f35b610381600480360381019061037c9190611b32565b61098b565b60405161038e919061218d565b60405180910390f35b61039f6109f5565b6040516103ac91906121c3565b60405180910390f35b6103bd610a87565b6040516103ca91906121a8565b60405180910390f35b6103ed60048036038101906103e89190611aa4565b610a8e565b6040516103fa919061218d565b60405180910390f35b61041d60048036038101906104189190611aa4565b610b79565b60405161042a919061218d565b60405180910390f35b61043b610b97565b604051610448919061218d565b60405180910390f35b610459610baa565b60405161046691906121a8565b60405180910390f35b61048960048036038101906104849190611b32565b610bce565b005b6104a560048036038101906104a09190611a19565b610bf7565b6040516104b29190612385565b60405180910390f35b6104d560048036038101906104d09190611ae0565b610c7e565b005b60007f7965db0b000000000000000000000000000000000000000000000000000000007bffffffffffffffffffffffffffffffffffffffffffffffffffffffff1916827bffffffffffffffffffffffffffffffffffffffffffffffffffffffff1916148061054a575061054982610d4a565b5b9050919050565b6060600480546105609061257a565b80601f016020809104026020016040519081016040528092919081815260200182805461058c9061257a565b80156105d95780601f106105ae576101008083540402835291602001916105d9565b820191906000526020600020905b8154815290600101906020018083116105bc57829003601f168201915b5050505050905090565b60006105f76105f0610db4565b8484610dbc565b6001905092915050565b6000600354905090565b7f9143236d81225394f3bd65b44e6e29fdf4d7ba0773d9bb3f5cc15eb80ba3777781565b600061063c848484610f87565b6000600260008673ffffffffffffffffffffffffffffffffffffffff1673ffffffffffffffffffffffffffffffffffffffff1681526020019081526020016000206000610687610db4565b73ffffffffffffffffffffffffffffffffffffffff1673ffffffffffffffffffffffffffffffffffffffff16815260200190815260200160002054905082811015610707576040517f08c379a00000000000000000000000000000000000000000000000000000000081526004016106fe906122c5565b60405180910390fd5b61071b85610713610db4565b858403610dbc565b60019150509392505050565b6000806000838152602001908152602001600020600101549050919050565b61074f82610727565b6107608161075b610db4565b61120b565b61076a83836112a8565b505050565b60006012905090565b610780610db4565b73ffffffffffffffffffffffffffffffffffffffff168173ffffffffffffffffffffffffffffffffffffffff16146107ed576040517f08c379a00000000000000000000000000000000000000000000000000000000081526004016107e490612345565b60405180910390fd5b6107f78282611388565b5050565b600061089d610808610db4565b848460026000610816610db4565b73ffffffffffffffffffffffffffffffffffffffff1673ffffffffffffffffffffffffffffffffffffffff16815260200190815260200160002060008873ffffffffffffffffffffffffffffffffffffffff1673ffffffffffffffffffffffffffffffffffffffff1681526020019081526020016000205461089891906123e2565b610dbc565b6001905092915050565b6108d17ff0887ba65ee2024ea881d91b74c2450ef19e1557f03bed3ea9f16b037cbe2dc93361098b565b610910576040517f08c379a000000000000000000000000000000000000000000000000000000000815260040161090790612265565b60405180910390fd5b61091a8282611469565b5050565b6000600160008373ffffffffffffffffffffffffffffffffffffffff1673ffffffffffffffffffffffffffffffffffffffff168152602001908152602001600020549050919050565b7fdf8b4c520ffe197c5343c6f5aec59570151ef9a492f2c624fd45ddde6135ec4281565b600080600084815260200190815260200160002060000160008373ffffffffffffffffffffffffffffffffffffffff1673ffffffffffffffffffffffffffffffffffffffff16815260200190815260200160002060009054906101000a900460ff16905092915050565b606060058054610a049061257a565b80601f0160208091040260200160405190810160405280929190818152602001828054610a309061257a565b8015610a7d5780601f10610a5257610100808354040283529160200191610a7d565b820191906000526020600020905b815481529060010190602001808311610a6057829003601f168201915b5050505050905090565b6000801b81565b60008060026000610a9d610db4565b73ffffffffffffffffffffffffffffffffffffffff1673ffffffffffffffffffffffffffffffffffffffff16815260200190815260200160002060008573ffffffffffffffffffffffffffffffffffffffff1673ffffffffffffffffffffffffffffffffffffffff16815260200190815260200160002054905082811015610b5a576040517f08c379a0000000000000000000000000000000000000000000000000000000008152600401610b5190612325565b60405180910390fd5b610b6e610b65610db4565b85858403610dbc565b600191505092915050565b6000610b8d610b86610db4565b8484610f87565b6001905092915050565b600660009054906101000a900460ff1681565b7ff0887ba65ee2024ea881d91b74c2450ef19e1557f03bed3ea9f16b037cbe2dc981565b610bd782610727565b610be881610be3610db4565b61120b565b610bf28383611388565b505050565b6000600260008473ffffffffffffffffffffffffffffffffffffffff1673ffffffffffffffffffffffffffffffffffffffff16815260200190815260200160002060008373ffffffffffffffffffffffffffffffffffffffff1673ffffffffffffffffffffffffffffffffffffffff16815260200190815260200160002054905092915050565b610ca87fdf8b4c520ffe197c5343c6f5aec59570151ef9a492f2c624fd45ddde6135ec423361098b565b610ce7576040517f08c379a0000000000000000000000000000000000000000000000000000000008152600401610cde906122a5565b60405180910390fd5b80600660006101000a81548160ff0219169083151502179055507f5854ddf9a9b69cf8f2802ec78fb8d6bbf299e949955d9361212e652f4fec0e82600660009054906101000a900460ff16604051610d3f919061218d565b60405180910390a150565b60007f01ffc9a7000000000000000000000000000000000000000000000000000000007bffffffffffffffffffffffffffffffffffffffffffffffffffffffff1916827bffffffffffffffffffffffffffffffffffffffffffffffffffffffff1916149050919050565b600033905090565b600073ffffffffffffffffffffffffffffffffffffffff168373ffffffffffffffffffffffffffffffffffffffff161415610e2c576040517f08c379a0000000000000000000000000000000000000000000000000000000008152600401610e2390612305565b60405180910390fd5b600073ffffffffffffffffffffffffffffffffffffffff168273ffffffffffffffffffffffffffffffffffffffff161415610e9c576040517f08c379a0000000000000000000000000000000000000000000000000000000008152600401610e9390612245565b60405180910390fd5b80600260008573ffffffffffffffffffffffffffffffffffffffff1673ffffffffffffffffffffffffffffffffffffffff16815260200190815260200160002060008473ffffffffffffffffffffffffffffffffffffffff1673ffffffffffffffffffffffffffffffffffffffff168152602001908152602001600020819055508173ffffffffffffffffffffffffffffffffffffffff168373ffffffffffffffffffffffffffffffffffffffff167f8c5be1e5ebec7d5bd14f71427d1e84f3dd0314c0f7b2291e5b200ac8c7c3b92583604051610f7a9190612385565b60405180910390a3505050565b600073ffffffffffffffffffffffffffffffffffffffff168373ffffffffffffffffffffffffffffffffffffffff161415610ff7576040517f08c379a0000000000000000000000000000000000000000000000000000000008152600401610fee906122e5565b60405180910390fd5b600073ffffffffffffffffffffffffffffffffffffffff168273ffffffffffffffffffffffffffffffffffffffff161415611067576040517f08c379a000000000000000000000000000000000000000000000000000000000815260040161105e90612205565b60405180910390fd5b6110728383836115ca565b6000600160008573ffffffffffffffffffffffffffffffffffffffff1673ffffffffffffffffffffffffffffffffffffffff168152602001908152602001600020549050818110156110f9576040517f08c379a00000000000000000000000000000000000000000000000000000000081526004016110f090612285565b60405180910390fd5b818103600160008673ffffffffffffffffffffffffffffffffffffffff1673ffffffffffffffffffffffffffffffffffffffff1681526020019081526020016000208190555081600160008573ffffffffffffffffffffffffffffffffffffffff1673ffffffffffffffffffffffffffffffffffffffff168152602001908152602001600020600082825461118e91906123e2565b925050819055508273ffffffffffffffffffffffffffffffffffffffff168473ffffffffffffffffffffffffffffffffffffffff167fddf252ad1be2c89b69c2b068fc378daa952ba7f163c4a11628f55a4df523b3ef846040516111f29190612385565b60405180910390a3611205848484611688565b50505050565b611215828261098b565b6112a45761123a8173ffffffffffffffffffffffffffffffffffffffff16601461168d565b6112488360001c602061168d565b604051602001611259929190612153565b6040516020818303038152906040526040517f08c379a000000000000000000000000000000000000000000000000000000000815260040161129b91906121c3565b60405180910390fd5b5050565b6112b2828261098b565b61138457600160008084815260200190815260200160002060000160008373ffffffffffffffffffffffffffffffffffffffff1673ffffffffffffffffffffffffffffffffffffffff16815260200190815260200160002060006101000a81548160ff021916908315150217905550611329610db4565b73ffffffffffffffffffffffffffffffffffffffff168173ffffffffffffffffffffffffffffffffffffffff16837f2f8788117e7eff1d82e926ec794901d17c78024a50270940304540a733656f0d60405160405180910390a45b5050565b611392828261098b565b1561146557600080600084815260200190815260200160002060000160008373ffffffffffffffffffffffffffffffffffffffff1673ffffffffffffffffffffffffffffffffffffffff16815260200190815260200160002060006101000a81548160ff02191690831515021790555061140a610db4565b73ffffffffffffffffffffffffffffffffffffffff168173ffffffffffffffffffffffffffffffffffffffff16837ff6391f5c32d9c69d2a47ea670b442974b53935d1edc7fd64eb21e047a839171b60405160405180910390a45b5050565b600073ffffffffffffffffffffffffffffffffffffffff168273ffffffffffffffffffffffffffffffffffffffff1614156114d9576040517f08c379a00000000000000000000000000000000000000000000000000000000081526004016114d090612365565b60405180910390fd5b6114e5600083836115ca565b80600360008282546114f791906123e2565b9250508190555080600160008473ffffffffffffffffffffffffffffffffffffffff1673ffffffffffffffffffffffffffffffffffffffff168152602001908152602001600020600082825461154d91906123e2565b925050819055508173ffffffffffffffffffffffffffffffffffffffff16600073ffffffffffffffffffffffffffffffffffffffff167fddf252ad1be2c89b69c2b068fc378daa952ba7f163c4a11628f55a4df523b3ef836040516115b29190612385565b60405180910390a36115c660008383611688565b5050565b82600660009054906101000a900460ff16806116125750600073ffffffffffffffffffffffffffffffffffffffff168173ffffffffffffffffffffffffffffffffffffffff16145b8061164357506116427f9143236d81225394f3bd65b44e6e29fdf4d7ba0773d9bb3f5cc15eb80ba377773361098b565b5b611682576040517f08c379a000000000000000000000000000000000000000000000000000000000815260040161167990612225565b60405180910390fd5b50505050565b505050565b6060600060028360026116a09190612438565b6116aa91906123e2565b67ffffffffffffffff8111156116e9577f4e487b7100000000000000000000000000000000000000000000000000000000600052604160045260246000fd5b6040519080825280601f01601f19166020018201604052801561171b5781602001600182028036833780820191505090505b5090507f300000000000000000000000000000000000000000000000000000000000000081600081518110611779577f4e487b7100000000000000000000000000000000000000000000000000000000600052603260045260246000fd5b60200101907effffffffffffffffffffffffffffffffffffffffffffffffffffffffffffff1916908160001a9053507f780000000000000000000000000000000000000000000000000000000000000081600181518110611803577f4e487b7100000000000000000000000000000000000000000000000000000000600052603260045260246000fd5b60200101907effffffffffffffffffffffffffffffffffffffffffffffffffffffffffffff1916908160001a905350600060018460026118439190612438565b61184d91906123e2565b90505b6001811115611939577f3031323334353637383961626364656600000000000000000000000000000000600f8616601081106118b5577f4e487b7100000000000000000000000000000000000000000000000000000000600052603260045260246000fd5b1a60f81b8282815181106118f2577f4e487b7100000000000000000000000000000000000000000000000000000000600052603260045260246000fd5b60200101907effffffffffffffffffffffffffffffffffffffffffffffffffffffffffffff1916908160001a905350600485901c94508061193290612550565b9050611850565b506000841461197d576040517f08c379a0000000000000000000000000000000000000000000000000000000008152600401611974906121e5565b60405180910390fd5b8091505092915050565b6000813590506119968161261b565b92915050565b6000813590506119ab81612632565b92915050565b6000813590506119c081612649565b92915050565b6000813590506119d581612660565b92915050565b6000813590506119ea81612677565b92915050565b600060208284031215611a0257600080fd5b6000611a1084828501611987565b91505092915050565b60008060408385031215611a2c57600080fd5b6000611a3a85828601611987565b9250506020611a4b85828601611987565b9150509250929050565b600080600060608486031215611a6a57600080fd5b6000611a7886828701611987565b9350506020611a8986828701611987565b9250506040611a9a868287016119db565b9150509250925092565b60008060408385031215611ab757600080fd5b6000611ac585828601611987565b9250506020611ad6858286016119db565b9150509250929050565b600060208284031215611af257600080fd5b6000611b008482850161199c565b91505092915050565b600060208284031215611b1b57600080fd5b6000611b29848285016119b1565b91505092915050565b60008060408385031215611b4557600080fd5b6000611b53858286016119b1565b9250506020611b6485828601611987565b9150509250929050565b600060208284031215611b8057600080fd5b6000611b8e848285016119c6565b91505092915050565b611ba0816124a4565b82525050565b611baf816124b0565b82525050565b6000611bc0826123bb565b611bca81856123c6565b9350611bda81856020860161251d565b611be38161260a565b840191505092915050565b6000611bf9826123bb565b611c0381856123d7565b9350611c1381856020860161251d565b80840191505092915050565b6000611c2c6020836123c6565b91507f537472696e67733a20686578206c656e67746820696e73756666696369656e746000830152602082019050919050565b6000611c6c6023836123c6565b91507f45524332303a207472616e7366657220746f20746865207a65726f206164647260008301527f65737300000000000000000000000000000000000000000000000000000000006020830152604082019050919050565b6000611cd26023836123c6565b91507f526962626f6e546f6b656e3a206e6f207472616e736665722070726976696c6560008301527f67657300000000000000000000000000000000000000000000000000000000006020830152604082019050919050565b6000611d386022836123c6565b91507f45524332303a20617070726f766520746f20746865207a65726f20616464726560008301527f73730000000000000000000000000000000000000000000000000000000000006020830152604082019050919050565b6000611d9e6018836123c6565b91507f526962626f6e546f6b656e3a206f6e6c79206d696e74657200000000000000006000830152602082019050919050565b6000611dde6026836123c6565b91507f45524332303a207472616e7366657220616d6f756e742065786365656473206260008301527f616c616e636500000000000000000000000000000000000000000000000000006020830152604082019050919050565b6000611e446017836123c6565b91507f526962626f6e546f6b656e3a206f6e6c792061646d696e0000000000000000006000830152602082019050919050565b6000611e846028836123c6565b91507f45524332303a207472616e7366657220616d6f756e742065786365656473206160008301527f6c6c6f77616e63650000000000000000000000000000000000000000000000006020830152604082019050919050565b6000611eea6025836123c6565b91507f45524332303a207472616e736665722066726f6d20746865207a65726f20616460008301527f64726573730000000000000000000000000000000000000000000000000000006020830152604082019050919050565b6000611f506024836123c6565b91507f45524332303a20617070726f76652066726f6d20746865207a65726f2061646460008301527f72657373000000000000000000000000000000000000000000000000000000006020830152604082019050919050565b6000611fb66017836123d7565b91507f416363657373436f6e74726f6c3a206163636f756e74200000000000000000006000830152601782019050919050565b6000611ff66025836123c6565b91507f45524332303a2064656372656173656420616c6c6f77616e63652062656c6f7760008301527f207a65726f0000000000000000000000000000000000000000000000000000006020830152604082019050919050565b600061205c6011836123d7565b91507f206973206d697373696e6720726f6c65200000000000000000000000000000006000830152601182019050919050565b600061209c602f836123c6565b91507f416363657373436f6e74726f6c3a2063616e206f6e6c792072656e6f756e636560008301527f20726f6c657320666f722073656c6600000000000000000000000000000000006020830152604082019050919050565b6000612102601f836123c6565b91507f45524332303a206d696e7420746f20746865207a65726f2061646472657373006000830152602082019050919050565b61213e81612506565b82525050565b61214d81612510565b82525050565b600061215e82611fa9565b915061216a8285611bee565b91506121758261204f565b91506121818284611bee565b91508190509392505050565b60006020820190506121a26000830184611b97565b92915050565b60006020820190506121bd6000830184611ba6565b92915050565b600060208201905081810360008301526121dd8184611bb5565b905092915050565b600060208201905081810360008301526121fe81611c1f565b9050919050565b6000602082019050818103600083015261221e81611c5f565b9050919050565b6000602082019050818103600083015261223e81611cc5565b9050919050565b6000602082019050818103600083015261225e81611d2b565b9050919050565b6000602082019050818103600083015261227e81611d91565b9050919050565b6000602082019050818103600083015261229e81611dd1565b9050919050565b600060208201905081810360008301526122be81611e37565b9050919050565b600060208201905081810360008301526122de81611e77565b9050919050565b600060208201905081810360008301526122fe81611edd565b9050919050565b6000602082019050818103600083015261231e81611f43565b9050919050565b6000602082019050818103600083015261233e81611fe9565b9050919050565b6000602082019050818103600083015261235e8161208f565b9050919050565b6000602082019050818103600083015261237e816120f5565b9050919050565b600060208201905061239a6000830184612135565b92915050565b60006020820190506123b56000830184612144565b92915050565b600081519050919050565b600082825260208201905092915050565b600081905092915050565b60006123ed82612506565b91506123f883612506565b9250827fffffffffffffffffffffffffffffffffffffffffffffffffffffffffffffffff0382111561242d5761242c6125ac565b5b828201905092915050565b600061244382612506565b915061244e83612506565b9250817fffffffffffffffffffffffffffffffffffffffffffffffffffffffffffffffff0483118215151615612487576124866125ac565b5b828202905092915050565b600061249d826124e6565b9050919050565b60008115159050919050565b6000819050919050565b60007fffffffff0000000000000000000000000000000000000000000000000000000082169050919050565b600073ffffffffffffffffffffffffffffffffffffffff82169050919050565b6000819050919050565b600060ff82169050919050565b60005b8381101561253b578082015181840152602081019050612520565b8381111561254a576000848401525b50505050565b600061255b82612506565b9150600082141561256f5761256e6125ac565b5b600182039050919050565b6000600282049050600182168061259257607f821691505b602082108114156125a6576125a56125db565b5b50919050565b7f4e487b7100000000000000000000000000000000000000000000000000000000600052601160045260246000fd5b7f4e487b7100000000000000000000000000000000000000000000000000000000600052602260045260246000fd5b6000601f19601f8301169050919050565b61262481612492565b811461262f57600080fd5b50565b61263b816124a4565b811461264657600080fd5b50565b612652816124b0565b811461265d57600080fd5b50565b612669816124ba565b811461267457600080fd5b50565b61268081612506565b811461268b57600080fd5b5056fea26469706673582212205c1939aa337f484fa8648c4cdd93ae4e5228a7448c2643f1dbb72ebd6624de3b64736f6c63430008000033",
  "linkReferences": {},
  "deployedLinkReferences": {}
}